:400000000010002011000000450700004507000010B500F09FFBC04670B50F4C23688022D20213432360182000F018FC22680B4B134023600A4A0B4B1A60063A0A4B1A6013
:40004000002525600949092000F0D4FB092000F0C5FB074B1D6070BD00010B40FFFFFBFF0600008004010B4008010B406D0A00000C020B4010B572B601222A4B1A70002456
:400080000FE029486200131959000B00411889881A5AC31858880004104300F04DFB0134E4B2012CEDD920490C312048643000F029FBEE2212021E4B1A6099231B041D4A09
:4000C00013601D4A13601D4A13601D4A136001221C4B1A6001321C4B1A601C490B783A32934314221343DBB20B70194A117816230B43DBB213700722164B1A60164A174BE0
:400100001A604122164B1A60164A174B1A60C0225203164B1A60164A164B1A60FFF77CFF10BDC0461C700F4038100000B81000000C00014000500F4010500F4020500F40F5
:4001400030500F402000004000800F4001700F4000700F4000000440A40D180008000440000104404C1218000801044008020440860D00000803044010B5064C2378002B94
:4001800007D1054B002B02D0044800E000BF0123237010BD4801002000000000800F0000084B10B5002B03D00749084800E000BF07480368002B00D110BD064B002BFBD094
:4001C0009847F9E7000000004C010020800F0000C00000200000000070B5050000240FE0802020412840431E9841C0B200F00AFD012000F0FBFC002000F0F8FC0134E4B244
:40020000072CEDD970BDC04610B5114C237801209840C043C0B2FFF7DFFF23780D4AD05CC0B2FFF7D9FF012000F0D4FC002000F0D1FC23780133DBB22370072B02D9002259
:40024000034B1A70024A53680133536010BDC04664010020C400002070B50D00140000F071FD280000F07AFD200000F083FD70BD002304E0FF21034AD1540133DBB2072B00
:40028000F8D97047C400002010B5012000F040FC012000F053FC012000F066FC00210EE04B005B180748C3189B18012018720132D2B200E00022022AF2D90131C9B203290F
:4002C000F8D910BD6401002070B582B00024002563E0002C06D1062000F01AFC002000F021FC10E0012C06D1062000F027FC002000F02EFC07E0022C05D1062000F034FC04
:40030000002000F03BFC142000F09EFA00F042FC01AE307000F046FC707000F04BFCB07000F050FCF070002219E0130001A9885C00280CD1510089181A4E71180919097AEF
:40034000012904D151008918174D69180D5D5900CB181449CB181B1918720132D2B2032AE3D9002C06D1012000F0DCFB012000F0CFFB10E0012C06D1012000F0E9FB012093
:4003800000F0DCFB07E0022C05D1012000F0F6FB012000F0E9FB0134E4B2022C99D9280002B070BD64010020980F0000F0B55F4656464D464446F0B485B062B600F0B2FC64
:4003C000C54800F04DFCFFF75FFF0522002102A800F0BCFD012201210120FFF73DFF0023994600269846019300270025FFF76CFF009004002A280ED10522002102A800F042
:40040000A5FDFFF735FF012201210020FFF724FF002398460025042D00D959E1AB00AF4AD3589F46012201210020FFF715FFFFF71FFF00230EE0984507D902AAD25CA84938
:400440008A18117BA74AD15402E0BF21A54AD1540133DBB2032BEED9009A1300303BDBB2092B08D84346032B05D8013302A940460A54DBB29846232C00D029E14346042B50
:4004800000D025E10422984902A800F067FD002806D1964B5F68002600239846022517E1924B5F6800239846914B019301250FE1FFF7DEFE012201210020FFF7CDFE8B4B7B
:4004C0005B68DB1B8B4A93420CD9130001990A00994204D9884B9C466244019200E00025824B5F68FA218900019800F077FCC3B21A007C4C8C2323700A210092100000F0C8
:400500006DFCC0B23030764B9B465844037BA3700A21009800F0E8FCC9B2303159440B7BE370D5E0FFF7A4FE012200210120FFF793FE6E4B5B68DB1B2C22FF3293420AD9E6
:400540000136F6B2052E04D9684B5B68002301930325664B5F6800230DE0F118072211406648415C5E484118087B5E49C854D21A88540133DBB2032BEFD9A9E0FFF778FE28
:40058000012200210120FFF767FE392C08D10522002102A800F0DAFC0023994698460425524B5B68DB1B092B04D9019B0A3301934E4B5F68FA218900019C200000F00EFCED
:4005C00000904F490194200000F008FC0A2100F08BFC3031424B9A4651440B7B7F2293461340404C23713C21009800F07DFC0B000A210093180000F0F1FB30305044037B25
:4006000063710A21009800F06FFC303151440B7B5A461340A371FA218900019800F064FC0800642100F0DAFB30305044037BE3714EE0FFF71DFE002201210120FFF70CFEFC
:40064000009A1300303BDBB2092B08D84346032B05D8013302A940460A54DBB29846232C06D101234A465A40D3B299461F4B5F684B46002B0ED10AE0984506D902AAD25CDB
:4006800017498A18117B174AD1540133DBB2032BF2D91DE0154B5B68DB1B5E22FF32934206D90136F6B2072E00D900260F4B5F6800230BE0F21803210A4002A98A5C084955
:4006C0008A18117B074AD1540133DBB2072BF1D90A2000F0A1F889E609020000840F0000980F0000C40000202410000064010020983A0000E703000018FCFFFF2C1000008B
:4007000060EA0000F0B50025002711E0BB00C658F3B2FF22964308E06A008A181478A419527822700135013BDBB2002BF4D10137072FEBD9F0BDC04610B50A00002100F0C8
:4007400005FC10BD10B500F0D5FB03680C2B00D1FEE7FEE770B50F4E0F4D13E029686B68AC68002202E001C901C30432A242FAD1E868002202E0002102C304328242FAD12A
:400780001035013E002EE9D100F0BAFBFFF70EFEFEE7C046010000009011000010B500230AE0032B03D89A000949505800E009489900094A885001332F2BF2D9FFF75AFC90
:4007C0008022D205116801230B43136010BDC0460000000045070000000000201F2318401E3B8340014A13607047C04600E100E001BE704770B504000D001F2802D9002003
:40080000FFF7F6FF1034A40080239B059C4664442068256070BDC04610B5040006E0084B586800F0B5FA074B9C46644480231B029C42F4D8024B9868604300F0A9FA10BDE1
:40084000CC0000200080FFFF10B5034B1B7B584300F09EFA10BDC046CC000020F0B557464E46C0B483B0040000F09CFA0190E71E2D2F74D83F4B1B78DBB29C4208D83E4B4D
:400880001B78DBB29A463D4B1B78DBB2994631E03B4B1B78DBB29C4208D83A4B1B78DBB29A46394B1B78DBB2994623E0374B1B78DBB29C4208D8364B1B78DBB29A46354BD0
:4008C0001B78DBB2994615E0334B1B78DBB29C4208D8324B1B78DBB29A46314B1B78DBB2994607E02F4B1B78DBB29A462E4B1B78DBB299462D4BDE5D2F2E09D92A2C07D9AF
:4009000019222B4B1A60052000F042FA192503E0274B1D683F231D40B54206D9234BDA5D234B1A60052000F033FA1F4B9C4664442378DBB21F4A13601F4B52461A601F4BE1
:400940004A461A600520FFF77FFFB5420AD2174BDA5D174B1A60052000F01AFA02E00020FFF746FF019800F021FA03B00CBC91469A46F0BDC0F1FF0FC1F1FF0FC2F1FF0F63
:40098000C3F1FF0FC4F1FF0FC5F1FF0FC6F1FF0FC7F1FF0FC8F1FF0FC9F1FF0FCAF1FF0FCBF1FF0FCCF1FF0FCDF1FF0F3C1100002CFF0B4028FF0B401CFF0B4020FF0B40A5
:4009C000034B1868C0231B02184000D00120704700010B4010B500F0E5F9044A1368C02109020B43136000F0E1F910BD00010B4010B500F0D7F908490A68084B1A40802458
:400A0000E40122430A600A6813408022120213430B6000F0CBF910BD00010B40FF3FFFFF70B5050000F0BEF90400FFF7C9FF002803D0FFF7DDFF012100E000210848284082
:400A4000084A1568084B2B40184310601368012901D1FFF7BFFF200000F0A8F970BDC0460404040010020B40FBFBFBFF10B5244B1B685B0715D5234B1B685B070ED5224B10
:400A8000D969042001401F4C22688A432260DA698243DA611B69002B00D098470420FFF7BFFF174B1B685B0518D5164B1B685B0510D5154BD9698022D2001140114802684D
:400AC0008A430260D969114A0A40DA615B69002B00D098478020C000FFF7A2FF084B1B685B030CD5074B1B685B0304D5064B9B69002B00D098478020C002FFF791FF10BD0B
:400B000010020B40E000002078010020FFFBFFFF034A136807218B43184310607047C04608000440044A1368DBB201218B430840184310607047C04600000440034A136813
:400B400038218B43C0001843106070470800044004490A68D2B202239A434000184010430860704700000440034A136807218B43184310607047C04608010440044A1368D1
:400B8000DBB201218B430840184310607047C04600010440024B1868400801231840704704010440024B1868800801231840704704010440024B1868C00801231840704779
:400BC00004010440024B186800090123184070470401044004490A68D2B240239A43800118401043086070470002044004490A68D2B240239A438001184010430860704778
:400C000000000440044A1368DBB201218B430840184310607047C04600030440014B18647047C0460000002010B5040000F0BAF8044A1368C0218B43A4011C43146000F023
:400C4000B5F810BD00E400E00122014B1A60704700E100E00122014B1A60704780E100E010B50400FFF7F6FF2000FFF7D7FF0320FFF7DAFFFFF7E8FF10BDC046034A1178DC
:400C800080235B420B43DBB21370704771000F40014B18707047C04682000F40014B1878C0B2704762000F4010B50100014800F081F810BD20000F4010B5024800F084F8D8
:400CC00010BDC04640000F4010B50100014800F071F810BD00000F4010B501E0FFF7ECFFFFF7DCFF0307F9D410BDC04610B50B4C2000FFF7D9FF2000FFF7E6FF00F052F8CD
:400D0000074A117810230B43DBB2137000F04EF8FFF7E2FF0020FFF7BBFF10BDBF5D000092000F4010B5064B1B78002B04D1FFF7DDFF0122024B1A70FFF7A0FF10BDC046C4
:400D40009801002004490A68D2B240239A43800118401043086070470001044004490A68D2B204239A43800018401043086070470000044004490A68D2B208239A43C000C7
:400D8000184010430860704700000440000000000230800804D0C0460138FDD1C046C046C0467047EFF3108072B6704780F310887047C046CBB203700B0ADBB24370090C4E
:400DC000C9B281707047C0460378427812021A4383781B041A4310007047C046002243088B4274D303098B425FD3030A8B4244D3030B8B4228D3030C8B420DD3FF220902A5
:400E000012BA030C8B4202D31212090265D0030B8B4219D300E0090AC30B8B4201D3CB03C01A5241830B8B4201D38B03C01A5241430B8B4201D34B03C01A5241030B8B42BE
:400E400001D30B03C01A5241C30A8B4201D3CB02C01A5241830A8B4201D38B02C01A5241430A8B4201D34B02C01A5241030A8B4201D30B02C01A5241CDD2C3098B4201D377
:400E8000CB01C01A524183098B4201D38B01C01A524143098B4201D34B01C01A524103098B4201D30B01C01A5241C3088B4201D3CB00C01A524183088B4201D38B00C01AD2
:400EC000524143088B4201D34B00C01A5241411A00D20146524110467047FFE701B5002000F006F802BDC0460029F7D076E770477047C046014B18687047C0464401002089
:400F00000E4B70B500251E000D4CE41AA410A54204D0AB00F35898470135F8E700F026F9084B00251E00084CE41AA410A54204D0AB00F35898470135F8E770BD781100003A
:400F400078110000781100008011000003008218934202D019700133FAE77047002330B59A420BD0013AC45CCD5CAC4205D19A4202D00133002CF6D12500631B180030BDB1
:400F80000000000024040000B0040000240500007C050000320600003132333435363738392A30230000000000000000000000000000000000000000000000000000000019
:400FC00000000000FF000000000000000000000000BF0000C0F9A4B0999282F880900000000000000000000000860000000000000000ABC08C0000000000000000000000F4
:40100000000000F7000000000000000000000000000000000000000000000000000000000000000032303236000000004F504520202020200000000000300F4000040040A8
:401040000F400004820D405149FF4AFF4BFF4F0150185A045D095F016040624064406540668068806A806C806E80C041C9FFCAFFCBFFCD83CE03CF01D018D280DA04DB04E5
:40108000DD99DF01E040E240E440E540E680E880EA80EC80EE80420246824801740176807780D098D2080E012E01300136013E01404145EC4720482349FF4AFF4BFF4D8330
:4010C0004E034F015018540158045A045B045C095D995F016040624064406540668068806A806C806E80060217801E801F8046824D044F0156025D045E805F0187809A8044
:401100009B809E02C080C480D090D6D06F20DA808720A720E61002011101000001000F4028300F4008310F4020320F4013330F4002400F4003410F4002600F40030405066C
:401140000708090A0B0C0E0F101112131415161718191B1C1D1E1F2021222325262728292A2B2E2F3031323334354300F8B5C046F8BC08BC9E467047A10100009D07000042
:40118000F8B5C046F8BC08BC9E46704779010000A0110000C0000020880000005800000000000000FFFFFFFFFFFFFFFF010000000000E02EC05D00001800000000366E019D
:4011C0000404040000000000000000000000000000000000000000000000000000000000000000006A11000000000000000000000000000000000000000000000000000068
:40120000000000000000000000000000000000000000000000000000000000000000000000000000E4000020000000000000000000000000000000000000000000000000AA
:40124000000000000000000000000000000000000000000000000000000000000000000000000000000000000000000000000000000000000000000000000000000000006E
:40128000000000000000000000000000000000000000000000000000000000000000000000000000000000000000000000000000000000000000000000000000000000002E
:4012C00000000000000000000000000000000000000000000000000000000000000000000000000000000000000000000000000000000000000000000000000000000000EE
:4013000000000000000000000000000000000000000000000000000000000000000000000000000000000000000000000000000000000000000000000000000000000000AD
:0200000490303A
:02000000FC27DB
:0200000490402A
:200000000000000000000000000000000000000000000000000000000000000000000000E0
:0200000490501A
:0C000000000204C81193110104CE0DBAD7
:0200000490600A
:0100000001FE
:00000001FF