:400000000010002011000000E9020000E902000010B500F071F9C04670B50F4C23688022D20213432360182000F0D2F922680B4B134023600A4A0B4B1A60063A0A4B1A604E
:40004000002525600949092000F0A6F9092000F097F9074B1D6070BD00010B40FFFFFBFF0600008004010B4008010B40E10500000C020B4010B572B60122294B1A70002448
:400080000FE028486200131959000B00411889881A5AC31858880004104300F01FF90134E4B2012CEDD91F490C311F48643000F0FBF8EE2212021D4B1A6099231B041C4A6F
:4000C00013601C4A13601C4A13601C4A136001211B4B196002221B4B1A601B4803783A32934314221343DBB20370184A107816230343DBB213700322154B1A60154A164B19
:400100001A60164B1960164A164B1A60C0225203154B1A60154A164B1A60FFF77DFF10BD1C700F40EC0800006C0900000C00014000500F4010500F4020500F4030500F4039
:400140002000004000800F4001700F4000700F40000004402400180008000440000104404C1200000801044008020440860D00000803044010B5064C2378002B07D1054BE0
:40018000002B02D0044800E000BF0123237010BD4001002000000000C0080000084B10B5002B03D00749084800E000BF07480368002B00D110BD064B002BFBD09847F9E7CC
:4001C0000000000044010020C0080000C00000200000000070B50500002412E0802323412B4203D0012000F065FA02E0002000F061FA012000F052FA002000F04FFA0134C3
:40020000E4B2072CEAD970BD70B504000D001600072805D9FF20FFF7DDFFFF20FFF7DAFF0120A040C043C0B2FFF7D4FF002E06D0084B5B5D7F201840FFF7CCFF03E0054B94
:40024000585DFFF7C7FF012000F01CFA002000F019FA70BDC408000010B582B008220B491431684600F01AFB094C20786B46195C0022FFF7C9FF23780133DBB22370072B49
:4002800002D90022024B1A7002B010BDC40800005C01002010B562B600F09CFA014800F037FAFEE759020000F0B50025002711E0BB00C658F3B2FF22964308E06A008A1847
:4002C0001478A419527822700135013BDBB2002BF4D10137072FEBD9F0BDC04610B50A00002100F0E4FA10BD10B500F0ABFA03680C2B00D1FEE7FEE770B50F4E0F4D13E092
:4003000029686B68AC68002202E001C901C30432A242FAD1E868002202E0002102C304328242FAD11035013E002EE9D100F090FAFFF7B0FFFEE7C04601000000440A00000A
:4003400010B500230AE0032B03D89A000949505800E009489900094A885001332F2BF2D9FFF788FE8022D205116801230B43136010BDC04600000000E9020000000000208F
:400380001F2318401E3B8340014A13607047C04600E100E001BE704770B504000D001F2802D90020FFF7F6FF1034A40080239B059C4664442068256070BDC04610B5034B6A
:4003C0001B7B584300F018FA10BDC046C4000020F0B557464E46C0B483B0040000F016FA0190E71E2D2F74D83F4B1B78DBB29C4208D83E4B1B78DBB29A463D4B1B78DBB2BB
:40040000994631E03B4B1B78DBB29C4208D83A4B1B78DBB29A46394B1B78DBB2994623E0374B1B78DBB29C4208D8364B1B78DBB29A46354B1B78DBB2994615E0334B1B78F7
:40044000DBB29C4208D8324B1B78DBB29A46314B1B78DBB2994607E02F4B1B78DBB29A462E4B1B78DBB299462D4BDE5D2F2E09D92A2C07D919222B4B1A60052000F0BCF943
:40048000192503E0274B1D683F231D40B54206D9234BDA5D234B1A60052000F0ADF91F4B9C4664442378DBB21F4A13601F4B52461A601F4B4A461A600520FFF77FFFB542CF
:4004C0000AD2174BDA5D174B1A60052000F094F902E00020FFF75EFF019800F09BF903B00CBC91469A46F0BDC0F1FF0FC1F1FF0FC2F1FF0FC3F1FF0FC4F1FF0FC5F1FF0F2F
:40050000C6F1FF0FC7F1FF0FC8F1FF0FC9F1FF0FCAF1FF0FCBF1FF0FCCF1FF0FCDF1FF0FF00900002CFF0B4028FF0B401CFF0B4020FF0B40034B1868C0231B02184000D0D0
:400540000120704700010B4010B500F05FF9044A1368C02109020B43136000F05BF910BD00010B4010B500F051F908490A68084B1A408024E40122430A600A681340802249
:40058000120213430B6000F045F910BD00010B40FF3FFFFF70B5050000F038F90400FFF7C9FF002803D0FFF7DDFF012100E0002108482840084A1568084B2B4018431060D6
:4005C0001368012901D1FFF7BFFF200000F022F970BDC0460404040010020B40FBFBFBFF10B5244B1B685B0715D5234B1B685B070ED5224BD969042001401F4C22688A430A
:400600002260DA698243DA611B69002B00D098470420FFF7BFFF174B1B685B0518D5164B1B685B0510D5154BD9698022D2001140114802688A430260D969114A0A40DA61E9
:400640005B69002B00D098478020C000FFF7A2FF084B1B685B030CD5074B1B685B0304D5064B9B69002B00D098478020C002FFF791FF10BD10020B40D8000020600100200A
:40068000FFFBFFFF04490A68D2B240239A43800118401043086070470002044004490A68D2B240239A438001184010430860704700000440044A1368DBB201218B4308408E
:4006C000184310607047C04600030440014B18647047C0460000002010B5040000F096F8044A1368C0218B43A4011C43146000F091F810BD00E400E00122014B1A607047A5
:4007000000E100E00122014B1A60704780E100E010B50400FFF7F6FF2000FFF7D7FF0320FFF7DAFFFFF7E8FF10BDC046034A117880235B420B43DBB21370704771000F40EA
:40074000014B18707047C04682000F40014B1878C0B2704762000F4010B50100014800F05DF810BD20000F4010B5024800F060F810BDC04640000F4010B50100014800F019
:400780004DF810BD00000F4010B501E0FFF7ECFFFFF7DCFF0307F9D410BDC04610B50B4C2000FFF7D9FF2000FFF7E6FF00F02EF8074A117810230B43DBB2137000F02AF83E
:4007C000FFF7E2FF0020FFF7BBFF10BDBF5D000092000F4010B5064B1B78002B04D1FFF7DDFF0122024B1A70FFF7A0FF10BDC04680010020000000000230800804D0C04676
:400800000138FDD1C046C046C0467047EFF3108072B6704780F310887047C046CBB203700B0ADBB24370090CC9B281707047C0460378427812021A4383781B041A4310001F
:400840007047C046014B18687047C0463C0100200E4B70B500251E000D4CE41AA410A54204D0AB00F35898470135F8E700F0D8F8084B00251E00084CE41AA410A54204D04D
:40088000AB00F35898470135F8E770BD2C0A00002C0A00002C0A0000340A0000002310B59A4203D0CC5CC4540133F9E710BD03008218934202D019700133FAE770470000F0
:4008C00000000000C0F9A4B0999282F88090BF8883C6A1868E7F000007060504030201000102030405060708090A000B00300F40000400400F400004820D405149FF4AFF4D
:400900004BFF4F0150185A045D095F016040624064406540668068806A806C806E80C041C9FFCAFFCBFFCD83CE03CF01D018D280DA04DB04DD99DF01E040E240E440E5404F
:40094000E680E880EA80EC80EE80420246824801740176807780D098D2080E012E01300136013E01404145EC4720482349FF4AFF4BFF4D834E034F015018540158045A0440
:400980005B045C095D995F016040624064406540668068806A806C806E80060217801E801F8046824D044F0156025D045E805F0187809A809B809E02C080C480D090D6D05E
:4009C0006F20DA808720A720E61002011101000001000F4028300F4008310F4020320F4013330F4002400F4003410F4002600F40030405060708090A0B0C0E0F101112135D
:400A00001415161718191B1C1D1E1F2021222325262728292A2B2E2F3031323334354300F8B5C046F8BC08BC9E4670479D01000041030000F8B5C046F8BC08BC9E467047C3
:400A400075010000580A0000C000002080000000480000000000000000000000010000000000E02EC05D00001800000000366E010404040000000000000000000000000001
:400A800000000000000000000000000000000000000000001E0A0000000000000000000000000000000000000000000000000000000000000000000000000000000000000E
:400AC0000000000000000000000000000000000000000000DC00002000000000000000000000000000000000000000000000000000000000000000000000000000000000FA
:400B000000000000000000000000000000000000000000000000000000000000000000000000000000000000000000000000000000000000000000000000000000000000B5
:400B40000000000000000000000000000000000000000000000000000000000000000000000000000000000000000000000000000000000000000000000000000000000075
:400B80000000000000000000000000000000000000000000000000000000000000000000000000000000000000000000000000000000000000000000000000000000000035
:400BC00000000000000000000000000000000000000000000000000000000000000000000000000000000000000000000000000000000000000000000000000000000000F5
:0200000490303A
:02000000A09DC1
:0200000490402A
:200000000000000000000000000000000000000000000000000000000000000000000000E0
:0200000490501A
:0C000000000204C81193110104CBB230BF
:0200000490600A
:0100000001FE
:00000001FF