:400000000010002011000000F1020000F102000010B500F075F9C04670B50F4C23688022D20213432360182000F0EEF922680B4B134023600A4A0B4B1A60063A0A4B1A601E
:40004000002525600949092000F0AAF9092000F09BF9074B1D6070BD00010B40FFFFFBFF0600008004010B4008010B40190600000C020B4010B572B600240FE01F48620070
:40008000131959000B00411889881A5AC31858880004104300F026F90134E4B2012CEDD9EE221202164B1A6099231B04154A1360154A1360154A1360154A1360154A1178E9
:4000C00006230B43DBB213708322134B1A60134A134B1A600122134B1A60134A134B1A608022134B1A60D8221204124B1A60124A124B1A60FFF790FF10BDC046480800005B
:400100000C00014000500F4010500F4020500F4030500F4000700F4000000440A40D580008000440000104404C121800080104400002044008020440860D000008030440C0
:4001400010B5064C2378002B07D1054B002B02D0044800E000BF0123237010BD400100200000000024080000084B10B5002B03D00749084800E000BF07480368002B00D176
:4001800010BD064B002BFBD09847F9E7000000004401002024080000C00000200000000070B50500002412E0802323412B4203D0012000F0E3FA02E0002000F0DFFA01209A
:4001C00000F0D0FA002000F0CDFA0134E4B2072CEAD970BD70B504000D001600072805D9FF20FFF7DDFFFF20FFF7DAFF0120A040C043C0B2FFF7D4FF002E06D0084B5B5DFA
:400200007F201840FFF7CCFF03E0054B585DFFF7C7FF012000F09AFA002000F097FA70BD2808000010B5002442E0012000F05EFA012000F067FA012000F070FA012000F04D
:4002400079FA002C02D1002000F050FA012C02D1002000F057FA022C02D1002000F05EFA032C02D1002000F065FA322000F0C2F800F024FA002805D163001C190E4B1C1949
:40028000207D18E000F022FA002805D163001C19094B1C19607D0EE000F020FA002805D163001C19044B1C19A07D04E00134E4B2032CBAD9FF2010BD2808000070B562B6A8
:4002C0000025FFF7AFFF0400FF2800D12C00002221000020FFF77EFF022000F073F82500EFE7C04610B50A00002100F093FA10BD10B500F063FA03680C2B00D1FEE7FEE730
:4003000070B50F4E0F4D13E029686B68AC68002202E001C901C30432A242FAD1E868002202E0002102C304328242FAD11035013E002EE9D100F048FAFFF7C0FFFEE7C046C0
:4003400001000000A808000010B500230AE0032B03D89A000949505800E009489900094A885001332F2BF2D9FFF784FE8022D205116801230B43136010BDC04600000000ED
:40038000F1020000000000201F2318401E3B8340014A13607047C04600E100E001BE704770B504000D001F2802D90020FFF7F6FF1034A40080239B059C466444206825609D
:4003C00070BDC04610B5040006E0084B586800F0E3F9074B9C46644480231B029C42F4D8024B9868604300F0D7F910BDC40000200080FFFF10B5034B1B7B584300F0CCF91E
:4004000010BDC046C4000020F0B557464E46C0B483B0040000F0CAF90190E71E2D2F74D83F4B1B78DBB29C4208D83E4B1B78DBB29A463D4B1B78DBB2994631E03B4B1B78F1
:40044000DBB29C4208D83A4B1B78DBB29A46394B1B78DBB2994623E0374B1B78DBB29C4208D8364B1B78DBB29A46354B1B78DBB2994615E0334B1B78DBB29C4208D8324BF8
:400480001B78DBB29A46314B1B78DBB2994607E02F4B1B78DBB29A462E4B1B78DBB299462D4BDE5D2F2E09D92A2C07D919222B4B1A60052000F070F9192503E0274B1D68FF
:4004C0003F231D40B54206D9234BDA5D234B1A60052000F061F91F4B9C4664442378DBB21F4A13601F4B52461A601F4B4A461A600520FFF77FFFB5420AD2174BDA5D174B1C
:400500001A60052000F048F902E00020FFF746FF019800F04FF903B00CBC91469A46F0BDC0F1FF0FC1F1FF0FC2F1FF0FC3F1FF0FC4F1FF0FC5F1FF0FC6F1FF0FC7F1FF0FEA
:40054000C8F1FF0FC9F1FF0FCAF1FF0FCBF1FF0FCCF1FF0FCDF1FF0F540800002CFF0B4028FF0B401CFF0B4020FF0B40034B1868C0231B02184000D00120704700010B4094
:4005800010B500F013F9044A1368C02109020B43136000F00FF910BD00010B4010B500F005F908490A68084B1A408024E40122430A600A6813408022120213430B6000F04C
:4005C000F9F810BD00010B40FF3FFFFF70B5050000F0ECF80400FFF7C9FF002803D0FFF7DDFF012100E0002108482840084A1568084B2B40184310601368012901D1FFF788
:40060000BFFF200000F0D6F870BDC0460404040010020B40FBFBFBFF10B5244B1B685B0715D5234B1B685B070ED5224BD969042001401F4C22688A432260DA698243DA61BE
:400640001B69002B00D098470420FFF7BFFF174B1B685B0518D5164B1B685B0510D5154BD9698022D2001140114802688A430260D969114A0A40DA615B69002B00D09847D0
:400680008020C000FFF7A2FF084B1B685B030CD5074B1B685B0304D5064B9B69002B00D098478020C002FFF791FF10BD10020B40D80000205C010020FFFBFFFF024B1B68A4
:4006C000012018407047C04604000440024B1868400801231840704704000440024B1B68012018407047C0460401044004490A68D2B202239A43400018401043086070474E
:400700000001044004490A68D2B204239A43800018401043086070470001044004490A68D2B208239A43C00018401043086070470001044004490A68D2B210239A43000130
:4007400018401043086070470001044004490A68D2B240239A43800118401043086070470002044004490A68D2B240239A438001184010430860704700000440044A13687B
:40078000DBB201218B430840184310607047C04600030440000000000230800804D0C0460138FDD1C046C046C0467047EFF3108072B6704780F310887047C046014B18685C
:4007C0007047C0463C0100200E4B70B500251E000D4CE41AA410A54204D0AB00F35898470135F8E700F04EF8084B00251E00084CE41AA410A54204D0AB00F35898470135D6
:40080000F8E770BD9008000090080000900800009808000003008218934202D019700133FAE7704700000000C0F9A4B0999282F88090BF8883C6A1868E7F0000010203041B
:4008400005060708090A000B00300F40000400400F400004030405060708090A0B0C0E0F101112131415161718191B1C1D1E1F2021222325262728292A2B2E2F30313233A3
:4008800034354300F8B5C046F8BC08BC9E4670476901000049030000F8B5C046F8BC08BC9E46704741010000B8080000C000002080000000400000000000000001000000A7
:4008C0000000E02EC05D00001800000000366E010404040000000000000000000000000000000000000000000000000000000000000000008208000000000000000000007A
:4009000000000000000000000000000000000000000000000000000000000000000000000000000000000000000000000000000000000000DC0000200000000000000000BB
:400940000000000000000000000000000000000000000000000000000000000000000000000000000000000000000000000000000000000000000000000000000000000077
:400980000000000000000000000000000000000000000000000000000000000000000000000000000000000000000000000000000000000000000000000000000000000037
:4009C00000000000000000000000000000000000000000000000000000000000000000000000000000000000000000000000000000000000000000000000000000000000F7
:400A000000000000000000000000000000000000000000000000000000000000000000000000000000000000000000000000000000000000000000000000000000000000B6
:0200000490303A
:02000000F4E822
:0200000490402A
:200000000000000000000000000000000000000000000000000000000000000000000000E0
:0200000490501A
:0C000000000204C81193110104CB067B20
:0200000490600A
:0100000001FE
:00000001FF