:400000000010002011000000890400008904000010B500F041FAC04670B50F4C23688022D20213432360182000F0BAFA22680B4B134023600A4A0B4B1A60063A0A4B1A6050
:40004000002525600949092000F076FA092000F067FA074B1D6070BD00010B40FFFFFBFF0600008004010B4008010B40B10700000C020B4010B572B600240FE01F4862003D
:40008000131959000B00411889881A5AC31858880004104300F0F2F90134E4B2012CEDD9EE221202164B1A6099231B04154A1360154A1360154A1360154A1360154A11781D
:4000C00006230B43DBB213708322134B1A60134A134B1A600122134B1A60134A134B1A608022134B1A60C0221204124B1A60D8221201114B1A60FFF78FFF10BD180E0000F4
:400100000C00014000500F4010500F4020500F4030500F4000700F4000000440A40D400008000440000104404C1218000801044000020440080204400803044010B5064C54
:400140002378002B07D1054B002B02D0044800E000BF0123237010BD5001002000000000540C0000084B10B5002B03D00749084800E000BF07480368002B00D110BD064B2B
:40018000002BFBD09847F9E70000000054010020540C0000C00000200000000010B5002405E0A200034BD358012098470134022CF7DD10BD8C0C000070B500251DE0104EAB
:4001C000AC000620A35998473419E3680020984700240AE0A3000A4AD3189B69984763001B19084AD31858550134032CF2DDAA00034BD358012098470135022DDFDD70BDC3
:400200008C0C00006C01002070B50D00140000F02DFB280000F036FB200000F01BFB70BD70B500F065FB002511E06B005B190A4AD318185D00F052FB084800F031FB0134A3
:4002400000E00024022CF0DD00F052FB0135032DF7DD00F04DFB70BD6C010020C40C000070B562B600F01AFB322000F077F900F03FFB6E4800F014FB00F03AFBFFF78EFFCB
:40028000002200210020FFF7BFFF0024FFF794FF0021002513E04B005B186548C3189B5C002B06D14B005B186248C3189B1828201D5C013200E00022022AECDD01310329C3
:4002C000F9DDAC4200D1ACE0002D0BD15A4800F0E7FA012201210120FFF796FFFFF7A0FF2C009EE00C2D6ED8AB00544AD3589F46534800F0D5FA012201210020FFF784FF21
:4003000061E0504800F0CCFA012200210120FFF77BFF58E04C4800F0C3FA002201210120FFF772FF4FE0494800F0BAFA012200210020FFF769FF46E0454800F0B1FA00227E
:4003400001210020FFF760FF3DE0424800F0A8FA002200210120FFF757FF34E03E4800F09FFA012201210020FFF74EFF2BE03B4800F096FA012200210120FFF745FF22E083
:40038000374800F08DFA002201210120FFF73CFF19E0344800F084FA012200210020FFF733FF10E0304800F07BFA002201210020FFF72AFF07E02D4800F072FA00220021F7
:4003C0000120FFF721FFFFF72BFF194A137B2849CD540133DBB21373022B0BD82C0020E0234AD15C134AD2183420125C914206D1013300E00023022BF2DD012400E00024F7
:4004000000F076FA012C03D11A4800F049FA02E0194800F045FA00F06BFA0022044B1A732C00142000F09AF830E7C046C80C00006C0100208C0C0000E00C0000580C0000B9
:40044000F40C0000080D00001C0D0000300D0000440D0000580D00006C0D0000800D0000940D0000A80D0000BC0D0000D00D00009C010020E40D0000000E000010B50A00BE
:40048000002100F0DFFB10BD10B500F0AFFB03680C2B00D1FEE7FEE770B50F4E0F4D13E029686B68AC68002202E001C901C30432A242FAD1E868002202E0002102C30432B8
:4004C0008242FAD11035013E002EE9D100F094FBFFF7C6FEFEE7C046010000008C0E000010B500230AE0032B03D89A000949505800E009489900094A885001332F2BF2D985
:40050000FFF7B8FD8022D205116801230B43136010BDC0460000000089040000000000201F2318401E3B8340014A13607047C04600E100E001BE704770B504000D001F28D4
:4005400002D90020FFF7F6FF1034A40080239B059C4664442068256070BDC04610B5040006E0084B586800F02FFA074B9C46644480231B029C42F4D8024B9868604300F09F
:4005800023FA10BDC40000200080FFFF10B5034B1B7B584300F018FA10BDC046C4000020F0B557464E46C0B483B0040000F016FA0190E71E2D2F74D83F4B1B78DBB29C42AB
:4005C00008D83E4B1B78DBB29A463D4B1B78DBB2994631E03B4B1B78DBB29C4208D83A4B1B78DBB29A46394B1B78DBB2994623E0374B1B78DBB29C4208D8364B1B78DBB28A
:400600009A46354B1B78DBB2994615E0334B1B78DBB29C4208D8324B1B78DBB29A46314B1B78DBB2994607E02F4B1B78DBB29A462E4B1B78DBB299462D4BDE5D2F2E09D947
:400640002A2C07D919222B4B1A60052000F0BCF9192503E0274B1D683F231D40B54206D9234BDA5D234B1A60052000F0ADF91F4B9C4664442378DBB21F4A13601F4B524660
:400680001A601F4B4A461A600520FFF77FFFB5420AD2174BDA5D174B1A60052000F094F902E00020FFF746FF019800F09BF903B00CBC91469A46F0BDC0F1FF0FC1F1FF0F11
:4006C000C2F1FF0FC3F1FF0FC4F1FF0FC5F1FF0FC6F1FF0FC7F1FF0FC8F1FF0FC9F1FF0FCAF1FF0FCBF1FF0FCCF1FF0FCDF1FF0F240E00002CFF0B4028FF0B401CFF0B402C
:4007000020FF0B40034B1868C0231B02184000D00120704700010B4010B500F05FF9044A1368C02109020B43136000F05BF910BD00010B4010B500F051F908490A68084B40
:400740001A408024E40122430A600A6813408022120213430B6000F045F910BD00010B40FF3FFFFF70B5050000F038F90400FFF7C9FF002803D0FFF7DDFF012100E000210B
:4007800008482840084A1568084B2B40184310601368012901D1FFF7BFFF200000F022F970BDC0460404040010020B40FBFBFBFF10B5244B1B685B0715D5234B1B685B07F1
:4007C0000ED5224BD969042001401F4C22688A432260DA698243DA611B69002B00D098470420FFF7BFFF174B1B685B0518D5164B1B685B0510D5154BD9698022D200114083
:40080000114802688A430260D969114A0A40DA615B69002B00D098478020C000FFF7A2FF084B1B685B030CD5074B1B685B0304D5064B9B69002B00D098478020C002FFF767
:4008400091FF10BD10020B40D80000207C010020FFFBFFFF04490A68D2B208239A43C00018401043086070470000044004490A68D2B240239A43800118401043086070474A
:400880000001044004490A68D2B204239A4380001840104308607047000004407047C04670B505000078012404E000F0A9F8285D0134E4B20028F8D170BDC04670B5040088
:4008C0000309054DE85C00F09BF80F231C40285D00F096F870BDC046540E000010B50400000AFFF7EBFFE0B2FFF7E8FF10BDC04610B50D2000F084F80A2000F081F810BDFA
:40090000034A136807218B43184310607047C04608000440044A1368DBB201218B430840184310607047C04600000440034A136838218B43C000184310607047080004404E
:4009400004490A68D2B202239A434000184010430860704700000440034A136807218B43184310607047C04608010440044A1368DBB201218B430840184310607047C0463B
:4009800000010440024B1868400801231840704704010440024B1868800801231840704704010440024B1868C00801231840704704010440024B1868000901231840704776
:4009C00004010440000000000230800804D0C0460138FDD1C046C046C0467047EFF3108072B6704780F310887047C046000000000000000000000000000000000000000031
:400A0000FEB5494652465B460EB407462E4909688A462E4A12682E48022100F05BF803002A480068C0182A4900F054F806001F3EB346234A126801219140C9430C000125CE
:400A40000026FFF7CBFF814651460B6823400B6058460430FFF7B8FF3800F040284090400B68234003430B605846FFF7ADFF0136072EF1D900200130012090400B682340BD
:400A800003430B6058460630FFF79EFF4846FFF7A9FFC046C046C0460EBC894692469B46FEBDC046C046C046C046C046C046C046C046C046C046C046C046C046C046C04679
:400AC000E4000020E0000020DC000020D400002080250000002243088B4274D303098B425FD3030A8B4244D3030B8B4228D3030C8B420DD3FF22090212BA030C8B4202D3A5
:400B00001212090265D0030B8B4219D300E0090AC30B8B4201D3CB03C01A5241830B8B4201D38B03C01A5241430B8B4201D34B03C01A5241030B8B4201D30B03C01A5241EF
:400B4000C30A8B4201D3CB02C01A5241830A8B4201D38B02C01A5241430A8B4201D34B02C01A5241030A8B4201D30B02C01A5241CDD2C3098B4201D3CB01C01A5241830904
:400B80008B4201D38B01C01A524143098B4201D34B01C01A524103098B4201D30B01C01A5241C3088B4201D3CB00C01A524183088B4201D38B00C01A524143088B4201D31B
:400BC0004B00C01A5241411A00D20146524110467047FFE701B5002000F006F802BDC0460029F7D076E770477047C046014B18687047C046480100200E4B70B500251E0046
:400C00000D4CE41AA410A54204D0AB00F35898470135F8E700F028F9084B00251E00084CE41AA410A54204D0AB00F35898470135F8E770BD740E0000740E0000740E0000FF
:400C40007C0E000003008218934202D019700133FAE7704700000000C6030000F0020000020300001403000026030000380300004A0300005C0300006E0300008003000076
:400C800092030000A4030000B6030000010900002D0900005909000015090000410900006D0900008509000095090000A5090000B50900000102030405060708090A0B0CD9
:400CC0000102030020000000536F667477617265205472616E736D697420554152540000427574746F6E2072656C65617365640D0A000000427574746F6E20312070726589
:400D0000737365640D0A0000427574746F6E203220707265737365640D0A0000427574746F6E203320707265737365640D0A0000427574746F6E2034207072657373656410
:400D40000D0A0000427574746F6E203520707265737365640D0A0000427574746F6E203620707265737365640D0A0000427574746F6E203720707265737365640D0A00005F
:400D8000427574746F6E203820707265737365640D0A0000427574746F6E203920707265737365640D0A0000427574746F6E202A20707265737365640D0A0000427574749E
:400DC0006F6E203020707265737365640D0A0000427574746F6E202320707265737365640D0A00003D3D3D2041636365737320616C6C6F776564203D3D3D0D0A000000008E
:400E00003D3D3D204163636573732064656E696564203D3D3D0D0A0000300F40000400400F400004030405060708090A0B0C0E0F101112131415161718191B1C1D1E1F2016
:400E400021222325262728292A2B2E2F30313233343500003031323334353637383941424344454600430000F8B5C046F8BC08BC9E46704765010000E1040000F8B5C046BF
:400E8000F8BC08BC9E4670473D010000A00E0000C000002090000000500000000000000000000000010000000000E02EC05D00001800000000366E01040404000002044038
:400EC00002000000070000000000000000000000000000000000000000000000000000000000000000000000650E0000000000000000000000000000000000000000000076
:400F000000000000000000000000000000000000000000000000000000000000000000000000000000000000E80000200000000000000000000000000000000000000000A9
:400F40000000000000000000000000000000000000000000000000000000000000000000000000000000000000000000000000000000000000000000000000000000000071
:400F80000000000000000000000000000000000000000000000000000000000000000000000000000000000000000000000000000000000000000000000000000000000031
:400FC00000000000000000000000000000000000000000000000000000000000000000000000000000000000000000000000000000000000000000000000000000000000F1
:4010000000000000000000000000000000000000000000000000000000000000000000000000000000000000000000000000000000000000000000000000000000000000B0
:0200000490303A
:02000000C7C473
:0200000490402A
:200000000000000000000000000000000000000000000000000000000000000000000000E0
:0200000490501A
:0C000000000204C81193110104CCD95770
:0200000490600A
:0100000001FE
:00000001FF